:100000000C94F7000C941F010C941F010C941F0119
:100010000C941F010C941F010C941F010C941F01E0
:100020000C941F010C941F010C9417160C94A91426
:100030000C941F010C941F010C941F010C941F01C0
:100040000C941F010C941F010C941F010C941F01B0
:100050000C941F010C941F010C941F010C944A0E68
:100060000C941F010C941F010C941F010C941F0190
:100070000C941F010C941F010C941F010C941F0180
:100080000C941F010C941F010C941F010C941F0170
:100090000C94670A0C941F010C941F010C941F010F
:1000A0000C941F010C941F010C941F016A0F6D0F1B
:1000B0005C0F600F660F8E0F8E0F8E0F710F750F16
:1000C000790F7F0F830F8E0F890F00000002000948
:1000D0000F0000030401000C0000000000000000FD
:1000E0000000000000000000000408020110408031
:1000F000401020408040800802040180402010020F
:10010000011080102040402004040404040304056E
:1001100002020202040302020202060606060606A4
:100120000404020202040400000000230026002947
:10013000002C002F0000000000250028002B002EBE
:1001400000310000000000240027002A002D0030AC
:1001500000080B0002020201000904000001020273
:1001600000000524001001052401010104240206F9
:100170000524060001070581031000400904010061
:10018000020A000000070502024000000705830282
:1001900040000012010002EF0201404123368000BE
:1001A0000101020301120100020000004041233658
:1001B0008000010102030141726475696E6F204C79
:1001C0004C430041726475696E6F204C656F6E61BF
:1001D00072646F00040309044F027D09040E0F0EC0
:1001E0001A0E280E330E3E0E1E118B11830211249F
:1001F0001FBECFEFDAE0DEBFCDBF12E0A0E0B1E07E
:10020000ECE3F6E302C005900D92A233B107D9F7F3
:1002100023E0A2E3B2E001C01D92A03DB207E1F7E6
:1002200011E0CCEED1E004C02297FE010E949B18A1
:10023000C83DD107C9F70E94C9170C94111B0C9433
:100240000000BC018EE593E00C94F3110F931F9313
:10025000CF93DF931F92CDB7DEB7482F8B0186E493
:1002600092E049830E940E0C20E130E0F8016481A5
:100270007581261B370B49812230310524F0B901E5
:100280007595679502C060E070E086E492E00E9498
:10029000150CB80186E492E00F90DF91CF911F9189
:1002A0000F910C94D811CF93DF9300D000D000D0E1
:1002B000CDB7DEB76FEC71E0CE0101960E94251735
:1002C00060E472E0CE0101960E94B317BC0180E0A9
:1002D0000E942601CE0101960E94B7166DE171E0E1
:1002E000CE0101960E942517BE016F5F7F4F81E00E
:1002F0000E942601CE0101960E94B71626960FB6DF
:10030000F894DEBF0FBECDBFDF91CF910895FF926D
:100310000F931F93CF93DF93CDB7DEB72C970FB614
:10032000F894DEBF0FBECDBF82E392E00E942F089B
:10033000882309F4A8C061E371E0CE0101960E9410
:100340002517CE0101960E942101CE0101960E943F
:10035000B71682E392E00E944E08882309F493C006
:1003600063E471E0CE0101960E942517CE0101964B
:100370000E942101CE0101960E94B71664E272E04C
:10038000CE0107960E942517F12C80913202F816B3
:1003900008F045C00F2D10E00E5C1D4FF801818163
:1003A000803118F46EE271E002C060E671E08EE523
:1003B00093E00E94E61140E150E0F80161818EE592
:1003C00093E00E946112F8018181803118F46EE29D
:1003D00071E002C060E671E0CE0101960E9425172F
:1003E000BE016F5F7F4FCE0107960E94AC17CE0112
:1003F00001960E94B71640E1F8016181CE01019695
:100400000E945317BE016F5F7F4FCE0107960E9477
:10041000AC17CE0101960E94B716F394B6CF68E5EB
:1004200071E0CE0101960E942517BE01695F7F4FE2
:10043000CE0101960E94B3170E942101CE010196C0
:100440000E94B71662E671E0CE0101960E94251760
:10045000BE01695F7F4FCE0101960E94B317BC01B8
:1004600080E00E942601CE0101960E94B71668EB3B
:100470007BE080E090E00E94B70E0E945301CE0125
:1004800007960E94B7162C960FB6F894DEBF0FBEE3
:10049000CDBFDF91CF911F910F91FF9008958F9263
:1004A000AF92CF92EF920F9300E020E040E060E047
:1004B0008FE592E00E947F111F921F9283E08F933D
:1004C00097E0892E26E0A22E35E0C32E44E0E42EEC
:1004D00021E042E067E286E492E00E945B0D68E67C
:1004E00071E080E492E00E9425170F900F900F902A
:1004F00049E06AE082E392E00F91EF90CF90AF90F5
:100500008F900C94E50380E492E00C94B716CF939F
:10051000DF9300D000D000D0CDB7DEB740E855E281
:1005200060E070E08EE593E00E9418116DE671E0E6
:10053000CE0101960E942517CE0101960E9421014D
:10054000CE0101960E94B7160E94140364E871E080
:10055000CE0101960E942517CE0101960E9421012D
:10056000CE0101960E94B71682E392E00E94210517
:100570006CE971E0CE0101960E942517CE0101962B
:100580000E942101CE0101960E94B71620E042E0B0
:1005900060E186E492E00E94E90D64EB71E0CE0137
:1005A00001960E942517BE016F5F7F4F80E00E9479
:1005B0002601CE0101960E94B7166FEC71E0CE01C4
:1005C00001960E94251760E472E0CE0101960E9418
:1005D000B317BC0181E00E942601CE0101960E9462
:1005E000B71661EC71E0CE0101960E94251760E418
:1005F00072E0CE0101960E94B3170E942101CE0144
:1006000001960E94B71668EB7BE080E090E00E94C4
:10061000B70E0E94530126960FB6F894DEBF0FBEA8
:10062000CDBFDF91CF910895CF93CFB7F89480914C
:100630006802811127C0E9E1F1E08491EAEFF0E07E
:100640009491E82FF0E0EE0FFF1FED5BFE4FA591B8
:10065000B4918C91892321F461E081E10E94C80F5B
:1006600061E081E10E948F0F8CB580618CBD8CB5FB
:1006700080648CBD61E08FE00E948F0F61E080E1BB
:100680000E948F0F809168028F5F80936802CFBFB6
:10069000CF91089520916702222399F03FB7F894F3
:1006A00020916702213059F42DB3209365024DB398
:1006B00020916602209524232DBB3FBF02C03093BA
:1006C00065028CBD9DBD08958EBD00000DB407FE72
:1006D000FDCF8EB5089580916702882361F09FB7A2
:1006E000F8942091670280916502213019F48DBB46
:1006F0009FBF08958FBF08957F928F929F92AF9270
:10070000BF92CF92DF92EF92FF920F931F93CF93FE
:10071000DF936C01162F942EE9011E77106883E594
:1007200090E00E944A0360E0F60184850E94C80FB1
:100730009A94812F0E9464037C2EEC2EFD2EAA2415
:10074000A394B12C8E2D8719891528F581111AC013
:100750000023C1F0802F812C883048F49501082EA9
:1007600001C0220F0A94EAF7822A8F5FF5CF812F0A
:100770000E946403982D9095288192238821982BBC
:10078000988305C0812F0E946403F7018083FFEFE7
:10079000EF1AFF0AD7CFC90DD11D80E00E94640374
:1007A000888361E0F60184850E94C80FDF91CF91B4
:1007B0001F910F91FF90EF90DF90CF90BF90AF907F
:1007C0009F908F907F900C946B03FC01648745870A
:1007D0000895EF92FF921F93CF93DF931F92CDB7AF
:1007E000DEB77C01162F83E590E049830E944A031F
:1007F00060E0F70184850E94C80F812F8E770E94E8
:1008000064034981842F0E94640361E0F7018485B9
:100810000E94C80F0F90DF91CF911F91FF90EF9032
:100820000C946B03CF92DF92EF92FF920F931F9382
:10083000CF93DF9300D0CDB7DEB78C01E62EF42E38
:1008400083E590E029833A830E944A0360E0F8013F
:1008500084850E94C80F8E2D8E770E9464032981A3
:10086000E22EC22E3A81D32E8C2D8E198F1530F4A4
:10087000F60181916F010E946403F6CF61E0F801F7
:1008800084850E94C80F0F900F90DF91CF911F9128
:100890000F91FF90EF90DF90CF900C946B031F931C
:1008A000CF93DF93EC01162F83E590E00E944A037B
:1008B00060E08C850E94C80F812F8E7780680E942F
:1008C000640380E00E946403182F61E08C850E941D
:1008D000C80F0E946B03812FDF91CF911F91089564
:1008E0000F9341110E947C030F910895EF92FF92A4
:1008F0001F93CF93DF931F92CDB7DEB77C01162FE6
:1009000049830E944F044981482B612FC7010F90F2
:10091000DF91CF911F91FF90EF900C94E903EF923C
:10092000FF921F93CF93DF931F92CDB7DEB77C0169
:10093000162F49830E944F04498140954823612F17
:10094000C7010F90DF91CF911F91FF90EF900C9412
:10095000E903DF92EF92FF920F931F93CF93DF9300
:10096000EC018B01D42E790140E062E00E94E903A2
:1009700044E06AE0CE010E94E90340E864E1CE0170
:100980000E94760498014D2D62E1CE010E9412046E
:1009900043E062E0CE010E94E90308E813E16AE067
:1009A000CE010E944F0482FD06C001501109B9F723
:1009B00083E090E013C040E062E0CE010E94E903D2
:1009C00064E4CE010E944F04F701808362E4CE010B
:1009D0000E944F04F701818380E090E0DF91CF9186
:1009E0001F910F91FF90EF90DF900895CF93DF93C9
:1009F000EC014FE062E00E94E90362E370E080E016
:100A000090E00E94B70E62E0CE010E944F0484FD88
:100A1000FACFDF91CF910895CF93DF93EC0168E295
:100A20000E944F04982F9370933041F0482F4360F9
:100A300068E2CE01DF91CF910C94E903DF91CF9171
:100A40000895CF93DF93EC0161E08C850E948F0FB6
:100A500061E08C850E94C80F61E08D850E948F0F38
:100A60008D850E94FE0F892B59F461E08D850E94CF
:100A7000C80F62E370E080E090E00E94B70E03C010
:100A8000CE010E94F60440E864E5CE010E94E9032D
:100A900049EA66E5CE010E94E90343E068E5CE013C
:100AA0000E94E90348EE6AE5CE010E94E90340E4B2
:100AB0006AE2CE010E94E9034DE362E2CE010E94A8
:100AC000E903CE01DF91CF910C940C052F923F9258
:100AD0005F926F927F928F929F92AF92BF92CF92CE
:100AE000DF92EF92FF920F931F93CF93DF9300D08B
:100AF00000D0CDB7DEB73C01962E542E302E082DF7
:100B0000A114B10419F0F501408101C040E0242E88
:100B1000F0E10F9F200C112440E062E0C3012B8321
:100B20003C830E94E9034FE768E0C3010E94E903A8
:100B300040E864E1C3010E9476042B813C81432D8F
:100B400062E1C3010E941204422D6AE1C3010E94C6
:100B5000E903492D62E0C3010E94E9038CE0981289
:100B600005C040E86AE1C3010E94760490ED292E99
:100B700097E0392E68E0C3010E944F04982F952119
:100B800039F480FD62C0E1E02E1A310899F75DC0AA
:100B90006CE0C3010E944F04982E837109F057C086
:100BA000E114F104F1F0C114D104D9F064E1C301FE
:100BB0000E944F04482FF6018081841708F449C031
:100BC0004083970162E1C3010E94700468E1C301A0
:100BD0000E944F04182F1770A114B10411F0F501F1
:100BE000108393FC38C0E114F104B9F1C114D104AD
:100BF000A1F1888D882389F1F6014081413019F4F3
:100C0000143019F420C0423010F487E027C01111CD
:100C1000FCCF42509E012F5F3F4FB701C3010E949E
:100C2000A9040097E1F4F6018081E80EF11CF701B8
:100C30003297908189819813E8CF319690818A818B
:100C40009813E3CF0AC08FEF09C083E007C081E0AB
:100C500005C084E003C082E001C080E090E00F9016
:100C60000F900F900F90DF91CF911F910F91FF90F8
:100C7000EF90DF90CF90BF90AF909F908F907F903C
:100C80006F905F903F902F9008958F92AF92BF9298
:100C9000CF92DF92EF92FF920F931F93AF928C2C23
:100CA000570168017901042F9B0140E36CE00E9429
:100CB00066050F901F910F91FF90EF90DF90CF90FE
:100CC000BF90AF908F9008954F925F926F927F92F6
:100CD0008F929F92AF92CF92EF92FF920F931F93BA
:100CE000CF93DF9300D0CDB7DEB73C016A832A01F2
:100CF00049014115510531F1F9018081823010F12E
:100D000040E86CE1C3010E948F0487E08983A12C35
:100D1000C12CCE0101967C018401920141E0BE010B
:100D20006E5F7F4FC3010E944506009779F4F4017E
:100D30008081823049F481E090E02981211106C050
:100D400080E004C084E001C081E090E00F900F904B
:100D5000DF91CF911F910F91FF90EF90CF90AF90C7
:100D60009F908F907F906F905F904F9008959A0121
:100D7000AB0166E20C9464062F923F924F925F9211
:100D80006F927F928F929F92AF92BF92CF92DF929B
:100D9000EF92FF920F931F93CF93DF93CDB7DEB700
:100DA0002D970FB6F894DEBF0FBECDBF3C012B01CF
:100DB000B42E40E54B1508F4E6C040E86CE10E9413
:100DC0008F042224239482E0281691F093E02916C0
:100DD000E1F0A1E02A12DBC083E98983BB20D1F0D6
:100DE00041E0F2018081853008F440E0D12C17C049
:100DF00085E98983BB2081F041E0D2018C91883064
:100E000008F440E073E0D72E0AC087E9898366E0E2
:100E1000D62E04C0D12C02C053E0D52E40E05B2D6D
:100E2000B8EFDB9E500D112457FD50E0442321F014
:100E300088E88B8373E001C072E091E0852F8770B2
:100E400009F490E0852F859585958595890F21F486
:100E5000442311F1585F20C0442311F063E001C026
:100E600064E0861708F4682F80E090E092012D0D71
:100E7000311DE72FE80FA1E0B0E0AC0FBD1FAE0FB2
:100E8000B11DFD01D901A80FB91F1196AC91A08326
:100E90000196861770F3DCCF43E0342E50320CF409
:100EA00057C0B0E7BA838C819B8189279D818927B0
:100EB0009E8189278F839E01285F3F4F47E0BE01B7
:100EC0006F5F7F4FC3015D870E94A9045D85009716
:100ED00009F0ACC01B863A86FE0137964F0179E0D7
:100EE0000BC0780F88248394912C8C0E9D1E880E45
:100EF000911C87E0821B8A87CB844C2D4295407FD2
:100F00004C0D6AE1C3015D877C870E94E903A12C37
:100F1000CE010B967C018E01065F1F4F94017C85EC
:100F2000472FBE016F5F7F4FC3010E9445065D855D
:100F30008230910509F56CE1C3010E944F045D8583
:100F400085FD23C052301CF58B8182608B8352E07B
:100F5000952F97709B87252F25952595259582E0C0
:100F6000820F392FF0E18F9F300D11243A8371E009
:100F70009111B7CF70E0B5CF009709F057C050324C
:100F800094F450E28ECF86E00CC082E00AC085E087
:100F900008C0F2018387822D880F820D8F5F8083C6
:100FA00080E090E043C08B81883819F052E044E043
:100FB00002C053E043E080E090E092012D0D311D2E
:100FC000F901E80FF91F652F680FA1E0B0E0AC0F41
:100FD000BD1FA60FB11D6C9161830196841780F32C
:100FE0008A858330F9F48B8581111CC09E012D5FA9
:100FF0003F4F41E0B401C3010E94A9040097B1F43E
:101000009B81D40111968C91119798130DC09C81EE
:1010100012968C911297981307C08C9182FFB9CFCA
:101020002394D1CE81E0BDCF87E0BBCF2D960FB604
:10103000F894DEBF0FBECDBFDF91CF911F910F910E
:10104000FF90EF90DF90CF90BF90AF909F908F90E8
:101050007F906F905F904F903F902F900895CF9327
:10106000DF9300D01F92CDB7DEB722E02B83AE0115
:101070004D5F5F4FBE016F5F7F4F0E94B7060097C5
:1010800031F021E0029709F020E0822F01C081E0D9
:101090000F900F900F90DF91CF91089540E0BC0129
:1010A0000E94BC0621E0892B09F020E0822F0895E0
:1010B0008091990290E020919A02821B91090895F3
:1010C00020919A0280919902281750F4E22FF0E0C3
:1010D000E556FD4F808190E02F5F20939A0208959E
:1010E0008FEF9FEF0895E0919A0280919902E8179F
:1010F00030F4F0E0E556FD4F808190E008958FEFE9
:101100009FEF08950895CF92DF92EF92FF920F9391
:101110001F93CF93DF937C01CB018A01209175024D
:10112000222389F0EB016B01C40ED51ECC15DD0521
:1011300069F06991D701ED91FC910190F081E02D6A
:10114000C7010995F3CF642F0E943E0AC801DF91C1
:10115000CF911F910F91FF90EF90DF90CF90089566
:10116000CF93DF931F92CDB7DEB7698320917502CD
:101170002223D1F020917602203240F021E030E0AD
:10118000FC013383228380E090E015C080917702D8
:10119000E82FF0E0E858FD4F998190838F5F8093AE
:1011A00077028093760205C061E0CE0101960E942D
:1011B0003E0A81E090E00F90DF91CF910895FC010D
:1011C0001382128248EE53E060E070E0448355835E
:1011D0006683778380EE91E09183808308951092F7
:1011E0009A021092990210927702109276020C9451
:1011F000810981E0809375026093980210927702D2
:101200001092760208950F93062F21E04091760206
:1012100068E772E0809198020E94E70910927702D5
:1012200010927602109275020F9108958F929F92FC
:10123000AF92BF92CF92DF92EF92FF920F931F93E4
:10124000CF93DF93EC01F62ED42E48015901EE2006
:1012500019F10E94F9081E2D143008F013E0115006
:10126000B8F0E881F98128E0129FB0011124A501AE
:10127000940104C056954795379527956A95D2F7FE
:10128000CA01B9010190F081E02DCE010995E7CFA7
:1012900060E0CE010E9403094D2D413208F040E28A
:1012A0002C2D6BE972E08F2D0E949F0910929A02FB
:1012B00080939902DF91CF911F910F91FF90EF9052
:1012C000DF90CF90BF90AF909F908F900895CF9276
:1012D000EF920F931F93C22EE12C00E010E09801D3
:1012E0000E9416091F910F91EF90CF90089521E071
:1012F0000C94670961E00C94030989E692E00C9470
:10130000DF081092280381E08093260310922503C2
:1013100061E082E00E94C80F61E083E00E94C80F94
:10132000E9EBF0E080818E7F808380818D7F8083F8
:1013300088E48093B80085E48093BC00089541322E
:1013400008F043C0909128039111FCCF91E0909355
:101350002803209326032FEF2093BB021092000353
:10136000240F2093FF029093270390912703880F67
:10137000892B8093270380912503813061F410929B
:101380002503809127038093BB008091BC0083FDDF
:10139000F8CF85EC01C085EE8093BC0080912803D6
:1013A0008130E1F380910003841710F44091000331
:1013B00021E033E0FB01D9018A2F821B841718F446
:1013C0008D918193F9CF842F089580E008950F9334
:1013D000413208F04AC0909128039111FCCF92E06D
:1013E00090932803009326039FEF9093BB021092E3
:1013F00000034093FF02FB0161E073E0DB019A2FE1
:10140000961B941718F491919D93F9CF109227038E
:1014100090912703880F892B8093270380912503C0
:10142000813061F410922503809127038093BB00E3
:101430008091BC0083FDF8CF85EC01C085EE8093E0
:10144000BC00222321F0809128038230E1F38091B7
:10145000BB028F3F61F08091BB02803251F08091DE
:10146000BB02803341F483E007C081E005C080E027
:1014700003C082E001C084E00F910895613298F4C6
:1014800020912803243089F46093DD02FC018FED64
:1014900092E0DC012A2F281B261718F421912D93A6
:1014A000F9CF80E0089581E0089582E0089585ED08
:1014B0008093BC008091BC0084FDFCCF1092280377
:1014C000089585EC8093BC001092280308951F9224
:1014D0000F920FB60F9211242F933F934F935F9368
:1014E0006F937F938F939F93AF93BF93EF93FF93EC
:1014F0008091B900887F803609F49EC078F58832E3
:1015000009F45DC090F4803109F456C038F48823A2
:1015100009F4F5C0883009F44FC0F5C0883109F4EA
:101520004EC0803209F45FC0EEC0803409F46AC056
:1015300058F4803309F457C0883309F0E4C080932D
:10154000BB020E94610ADFC0803509F44FC08835B4
:1015500009F45DC0883409F0D6C0D3C0883909F4D5
:10156000C4C0A8F4883709F467C038F4883609F491
:1015700063C0803709F460C0C6C0883809F4B5C0BC
:10158000803909F45FC0803809F0BDC05BC0803B82
:1015900009F483C038F4803A09F466C0883A09F443
:1015A0007CC0B1C0803C09F4A4C0883C09F4A1C04F
:1015B000883B09F487C0A7C08091270310C0909191
:1015C00000038091FF02981770F5E091000381E01D
:1015D0008E0F80930003F0E0EF5FFC4F80818093DB
:1015E000BB0085EC83C08093BB028BC0E0910003FD
:1015F00081E08E0F809300038091BB00F0E0EF5FED
:10160000FC4F8083909100038091FF026BC0E091BA
:10161000000381E08E0F809300038091BB00F0E017
:10162000EF5FFC4F80838091260381116AC081E0C7
:101630008093250384EA5EC083E0809328031092A0
:10164000BC02CFCF8091BC02803208F04EC0E09146
:10165000BC0281E08E0F8093BC028091BB00F0E061
:10166000E354FD4F8083BDCF0E94610A8091BC028C
:10167000803230F4E091BC02F0E0E354FD4F108280
:101680006091BC0270E0E0912103F09122038DEBA8
:1016900092E009951092BC0236C084E08093280342
:1016A0001092DE021092DD02E0912303F0912403F8
:1016B00009958091DD02811105C081E08093DD02F2
:1016C0001092DF02E091DE0281E08E0F8093DE0255
:1016D000F0E0E152FD4F80818093BB009091DE02EB
:1016E0008091DD02981708F47CCF85E88093BC00D8
:1016F0000AC085EC8093BC001092280304C01092AD
:10170000BB020E94570AFF91EF91BF91AF919F9149
:101710008F917F916F915F914F913F912F910F909A
:101720000FBE0F901F901895FC0112828FEF8183DE
:10173000108213820895FC018381882331F06111A6
:1017400003C08FEF8183089511820895CF93DF93B3
:10175000EC016A8389E692E00E94EF0841E06A8129
:1017600089E692E00E94770991E0811101C090E042
:101770009B8389E692E00E94600888838B8190E0D9
:10178000DF91CF910895CF93DF93EC018B81882374
:10179000A9F089818095862388836A8189E692E011
:1017A0000E94F908688189E692E00E94B00889E603
:1017B00092E00E947A09282F30E002C020E030E059
:1017C00081E090E0232B11F080E090E0DF91CF9159
:1017D000089508950895DC01ED91FC910284F3854C
:1017E000E02D41E0099581E090E00895FC0113822D
:1017F000128220EF31E0318320830895DC01ED91E6
:10180000FC910084F185E02D6FEF0994DC01ED91EE
:10181000FC910284F385E02D40E0099461E00E9490
:10182000060C80ED97E00C94F10ECF93DF93CDB7CB
:10183000DEB728970FB6F894DEBF0FBECDBF1D826E
:1018400020E42E8334E13F8334E5388719822A83EC
:1018500020E12B8320E52C83FC012781421710F027
:101860004FEF420FFC01308550E0FE01E40FF51F01
:10187000303121F4243011F4218101C02581260F5B
:101880002068622F28960FB6F894DEBF0FBECDBF3A
:10189000DF91CF910C94060CFC016581262F24600A
:1018A00025836C600C94060CCF93DF93EC014230DF
:1018B00018F08C8188608C834F836887222329F0FD
:1018C000413019F48C8184608C8364E670E080E0A0
:1018D00090E00E94B70E6C8164FD31C0E881F9810F
:1018E0000284F385E02D42E063E0CE01099584E9AE
:1018F00091E10E94F10EE881F9810284F385E02DE7
:1019000042E063E0CE01099584E991E10E94F10E85
:10191000E881F9810284F385E02D42E063E0CE01A5
:10192000099586E990E00E94F10EE881F981028430
:10193000F385E02D42E062E0CE01099516C06062B9
:10194000CE010E94060C84E991E10E94F10E6C81A7
:101950006062CE010E94060C86E990E00E94F10EC2
:101960006C816062CE010E94060C6C816062CE01C7
:101970000E94060C84E08D83CE010E944C0CCE01A7
:101980000E940E0C82E08E8366E0CE010E94060C5F
:10199000CE01DF91CF910C94FE0B21E001C0220F0C
:1019A0006A95EAF7DC011C962C931C971A965C93B7
:1019B0004E931997ED91FC910084F185E02D60E044
:1019C0000994FC012485222399F081859285009752
:1019D00019F4611105C006C0019721F4611102C01C
:1019E000258701C015866585CF010E960C94C30B23
:1019F00008950F931F93CF93DF93EC018C01025F47
:101A00001F4F6B85C8010E94A60B019761F461E02E
:101A1000C8010E949B0B1C8260E0C8010E94C30B9E
:101A200081E090E002C080E090E0DF91CF911F91D3
:101A30000F9108958F92AF92CF92EF920F93CF9321
:101A4000DF93CDB7DEB7FC01638714861586128657
:101A5000118681E0982F01C0990F4A95EAF7928B81
:101A6000982F01C0990F2A95EAF7938B982F01C000
:101A7000990F0A95EAF7948B982F01C0990FEA9471
:101A8000EAF7958B982F01C0990FCA94EAF7968BC5
:101A9000982F01C0990FAA94EAF7978B01C0880F7D
:101AA0008A94EAF7808FDF91CF910F91EF90CF90DA
:101AB000AF908F9008954F925F926F927F928F9226
:101AC000AF92CF92EF920F931F93CF93DF9300D0FB
:101AD0001F92CDB7DEB73C011A894B885C882B83F7
:101AE0004A8369830E94F60B80E092E0F3019183C0
:101AF0008083C3010E960E94940B2B814A816981D9
:101B0000C3010E941A0DA201612FC3010F900F9013
:101B10000F90DF91CF911F910F91EF90CF90AF90E9
:101B20008F907F906F905F904F900C94CD0CFF92B0
:101B30000F931F93CF93DF93EC01F62E8C01025F7E
:101B40001F4F6A896F29C8010E94C30B6A8960957B
:101B50006F21C801DF91CF911F910F91FF900C94DD
:101B6000C30B20E030E050E060FF05C0FC01E20F55
:101B7000F31F7589572B66952F5F3F4F2430310532
:101B800099F7413011F4FC014489FC016585652B0E
:101B9000642B0C94970D0F931F93CF93DF93EC015D
:101BA000142F062F0F70423011F440E00AC070E08D
:101BB00084E0759567958A95E1F7CE010E94B10D95
:101BC000412F602FCE01DF91CF911F910F910C9487
:101BD000B10D0F931F93CF93DF9300D01F92CDB71A
:101BE000DEB78C012B834A8369830E94F90C2B8119
:101BF0004A816981C8010F900F900F90DF91CF91BA
:101C00001F910F910C94540C0F9300E020E040E0E2
:101C100060E089E293E00E947F110F9108950F9395
:101C200000E020E040E060E08FE293E00E947F115E
:101C30000F9108950F9300E020E040E060E08DE315
:101C400093E00E947F1185E393E00F910C9475114E
:101C50000F9300E020E040E060E083E493E00E9426
:101C60007F110F9108950F9300E020E040E060E0C5
:101C700089E493E00E947F110F9108950F9300E093
:101C800020E040E060E08FE493E00E947F110F913C
:101C9000089508951F920F920FB60F9211242F935B
:101CA0003F938F939F93AF93BF93809156039091EF
:101CB0005703A0915803B09159033091550323E085
:101CC000230F2D3720F40196A11DB11D05C026E874
:101CD000230F0296A11DB11D209355038093560337
:101CE00090935703A0935803B093590380915A03DC
:101CF00090915B03A0915C03B0915D030196A11DDF
:101D0000B11D80935A0390935B03A0935C03B0933F
:101D10005D03BF91AF919F918F913F912F910F9054
:101D20000FBE0F901F9018953FB7F89480915A03FB
:101D300090915B03A0915C03B0915D0326B5A89BD5
:101D400005C02F3F19F00196A11DB11D3FBF6627A9
:101D5000782F892F9A2F620F711D811D911D42E0EE
:101D6000660F771F881F991F4A95D1F708958F92A4
:101D70009F92AF92BF92CF92DF92EF92FF926B0150
:101D80007C010E94940E4B015C01C114D104E1045A
:101D9000F104F1F00E94490E0E94940E681979092D
:101DA0008A099B09683E73408105910570F321E023
:101DB000C21AD108E108F10888EE880E83E0981E67
:101DC000A11CB11CC114D104E104F10429F7DDCF39
:101DD000FF90EF90DF90CF90BF90AF909F908F904B
:101DE00008958230910538F0880F991F880F991F48
:101DF00005970197F1F70895789484B5826084BDC2
:101E000084B5816084BD85B5826085BD85B58160FE
:101E100085BDEEE6F0E0808181608083E1E8F0E05E
:101E20001082808182608083808181608083E0E88D
:101E3000F0E0808181608083E1E9F0E08081826070
:101E40008083808181608083E0E9F0E0808181602F
:101E50008083E1ECF0E08081846080838081826017
:101E60008083808181608083E3ECF0E08081816009
:101E70008083E0ECF0E0808182608083E2ECF0E03F
:101E8000808181608083EAE7F0E0808184608083E4
:101E9000808182608083808181608083808180688E
:101EA0008083089590E0FC013197EF30F105B0F5A3
:101EB000EA5AFF4F0C949918809180008F7703C0E5
:101EC000809180008F7D80938000089580918000B4
:101ED000877FF9CF84B58F7702C084B58F7D84BDAD
:101EE0000895809190008F7707C0809190008F7D3A
:101EF00003C080919000877F809390000895809127
:101F0000C0008F7703C08091C0008F7D8093C00098
:101F100008958091C200877F8093C2000895CF9377
:101F2000DF9390E0FC01E751FF4F2491FC01E85F53
:101F3000FE4F8491882349F190E0880F991FFC019E
:101F4000ED5BFE4FA591B4918B5C9E4FFC01C5915A
:101F5000D4919FB7611108C0F8948C912095822389
:101F60008C93888182230AC0623051F4F8948C915A
:101F7000322F309583238C938881822B888304C0F1
:101F8000F8948C91822B8C939FBFDF91CF91089511
:101F90000F931F93CF93DF931F92CDB7DEB7282FF8
:101FA00030E0F901E653FF4F8491F901E751FF4F0B
:101FB0001491F901E85FFE4F04910023C9F08823D2
:101FC00021F069830E94520F6981E02FF0E0EE0F4B
:101FD000FF1FEB5CFE4FA591B4919FB7F8948C91D5
:101FE000611103C01095812301C0812B8C939FBF89
:101FF0000F90DF91CF911F910F910895CF93DF93B1
:10200000282F30E0F901E653FF4F8491F901E751A1
:10201000FF4FD491F901E85FFE4FC491CC2391F0BA
:1020200081110E94520FEC2FF0E0EE0FFF1FE95DCF
:10203000FE4FA591B4912C912D2381E090E021F4E5
:1020400080E002C080E090E0DF91CF910895CF93CF
:10205000DF931F92CDB7DEB76983DC01ED91FC9170
:102060000280F381E02D41E050E0BE016F5F7F4FC1
:1020700009950F90DF91CF910895CF93DF93EC01F5
:102080008C859D8597FF05C082E00E9479139D870E
:102090008C878C859D85DF91CF91089583E00C948A
:1020A0000D16FC018485958597FD06C082E00E948F
:1020B000211390E00196089582E00E94211390E0A0
:1020C0000895FC018485958597FD05C02FEF3FEFAE
:1020D00035872487089582E00C947913CF93DF939A
:1020E000EC0180911501882331F083E00E94AA134E
:1020F0001816190634F081E090E09B838A8380E013
:1021000090E0DF91CF910895FC0120812E5F208324
:1021100042E450E061E571E080E80C944514FC0174
:1021200021818081813A59F4213209F04BC047E086
:1021300050E06EE071E080E00E9445145EC08132A4
:1021400009F040C0233289F4838190E0982F8827DA
:102150003281832BA0E0B0E080930A0190930B01C1
:10216000A0930C01B0930D010FC0203239F467E049
:1021700070E08EE091E00E94761409C0223221F4D2
:1021800082818093150103C02D7F2032B1F58091AB
:10219000AE03811103C0E0E0F8E002C0EEEFFAE028
:1021A00080910E0190910F01A0911001B091110149
:1021B000803B9440A105B10511F58091150180FF88
:1021C00003C01DC080E00895EE3F2AE0F20731F021
:1021D000808191819093FF0A8093FE0A87E797E7B9
:1021E000918380832BE088E190E00FB6F894A89566
:1021F000809360000FBE2093600081E0089588E125
:102200000FB6F89480936000109260000FBEA895FE
:10221000EE3F8AE0F80739F08091FE0A9091FF0ABC
:1022200091838083EACF1092FF0A1092FE0AE5CFD5
:102230002FEF3FEFFC01358724870895109261034B
:102240001092600388EE93E0A0E0B0E08093620318
:1022500090936303A0936403B093650380E192E0DD
:1022600090935F0380935E038FEF9FEF90936B03D8
:1022700080936A030895AF92BF92CF92DF92EF925C
:10228000FF920F931F93CF93DF936C017B01C0E00C
:10229000D0E000E010E0F601EC0FFD1F4AE050E056
:1022A0006281C7010E9461125C016EE2C7010E9457
:1022B000E8118A0D9B1D080F191F2196C330D10507
:1022C00051F74AE050E0F6016581C7010E946112B2
:1022D000800F911FDF91CF911F910F91FF90EF9091
:1022E000DF90CF90BF90AF90089520E232E0FC01E4
:1022F00031832083128213821482158208950F93F2
:10230000FC0180E292E09183808362834383248393
:1023100005830F91089580E292E09093B00380933B
:10232000AF031092B1031092B2031092B303109254
:10233000B4030895CF92DF92EF92FF920F931F9311
:10234000CF93DF937C016A01EB0100E010E00C15F4
:102350001D0571F06991D701ED91FC910190F0811B
:10236000E02DC7010995892B19F00F5F1F4FEFCFA3
:10237000C801DF91CF911F910F91FF90EF90DF90F7
:10238000CF9008956115710581F0DB010D9000205B
:10239000E9F7AD0141505109461B570BDC01ED91A6
:1023A000FC910280F381E02D099480E090E0089593
:1023B000DC01ED91FC91DB0114964D915C91159738
:1023C0006D917C910280F381E02D09940C94C211EF
:1023D000DC01ED91FC910190F081E02D099462E225
:1023E00072E00C94C2110F931F93CF93DF93EC0113
:1023F0000E94D8118C01CE010E94EF11800F911F15
:10240000DF91CF911F910F9108958F929F92AF927C
:10241000BF92DF92EF92FF920F931F93CF93DF93C0
:10242000CDB7DEB7A1970FB6F894DEBF0FBECDBF14
:102430007C01F42FD52ECB0119A2223008F42AE01A
:102440008E010F5D1F4F822E912CA12CB12C6F2F6E
:102450007D2DA50194010E947718F22FD32ECA0179
:10246000015011096A3014F4E0E301C0E7E3E60F1C
:10247000D801EC93232B242B252B49F7B801C70156
:102480000E94C211A1960FB6F894DEBF0FBECDBF59
:10249000DF91CF911F910F91FF90EF90DF90BF9050
:1024A000AF909F908F9008952115310541F4DC0184
:1024B000ED91FC910190F081E02D642F09940C9432
:1024C00005129A01462F50E060E070E00C9454121F
:1024D000615030F02091F100FC0120830196F8CF8B
:1024E000289884E68093BE0308954091B9035091E3
:1024F000BA032091B7033091B80342175307B4F4DD
:102500009091E8009570E1F39091E80092FD19C078
:102510008093F1008091B9039091BA0301968F7373
:102520009927892B19F48EEF8093E8008091B903E5
:102530009091BA0301969093BA038093B90381E016
:10254000089580E00895CF92DF92EF92FF920F936B
:102550001F93CF93DF931F92CDB7DEB7082F162FAF
:10256000F42E862F880F8E5F99830E94751283E068
:102570000E947512E02EC02E9981D92E8C2D8E19B5
:10258000811798F4F601F7FE02C0849101C08081A2
:102590000E947512082F80E00E9475128023FFEFC1
:1025A000CF1ADF0A8111EACF01C081E00F90DF91DD
:1025B000CF911F910F91FF90EF90DF90CF900895F2
:1025C0008091D70081608093D70080EA8093D80003
:1025D00089B5806189BD89B5826089BD09B400FE75
:1025E000FDCF61E070E080E090E00E94B70E809146
:1025F000D8008F7C80618093D8008091E000807F3C
:102600008093E0000895CF93DF931F92CDB7DEB79C
:102610001982CE0101960E9484100E946318BE01A7
:102620006F5F7F4F0E94DC1789810F90DF91CF9100
:1026300008952FB7FC012083F89467706093E90038
:102640000895CF93DF931F92CDB7DEB7682FCE01E9
:1026500001960E9419138091F20099819FBF0F90FB
:10266000DF91CF910895FF920F931F93CF93DF9344
:1026700000D0CDB7DEB7F62E8A019091BD03992325
:1026800011F057FF03C08FEF9FEF2BC0682FCE01D3
:1026900001967A830E9419138091F20090E0A801BC
:1026A0007A81801791070CF4AC01EF2DF72FF40E0F
:1026B00084E6FE1639F028988093BE039091F100CD
:1026C0009193F7CF4115510521F08091F2008823B5
:1026D00021F089818FBFCA0104C08BE68093E80096
:1026E000F8CF0F900F90DF91CF911F910F91FF9036
:1026F0000895CF93DF931F92CDB7DEB741E050E04E
:10270000BE016F5F7F4F0E943313019719F48981D7
:1027100090E002C08FEF9FEF0F90DF91CF9108956F
:10272000CF93DF931F92CDB7DEB7682FCE0101960E
:102730000E9419139091E800892F807295FF04C0C0
:102740009091F20080E4891B99819FBF0F90DF91E7
:10275000CF9108956F927F928F929F92AF92BF9286
:10276000CF92DF92EF92FF920F931F93CF93DF935D
:102770001F92CDB7DEB7782E7B01C42EB52E809187
:10278000BD03882369F0042F152F8AEFD82E872DDB
:102790008072982E9AE3A92E872D8074882E11C0FE
:1027A0008FEF9FEF57C0872D0E949013682E8111E5
:1027B0000CC0DA94A9F361E070E080E090E00E9440
:1027C000B70E0115110579F73BC0282F30E002172D
:1027D00013070CF4602E672DCE0101960E94191389
:1027E0008091E80085FF29C0262D30E0021B130BE5
:1027F000992039F06A948FEF6816B1F01092F100C9
:10280000F9CFF701862D77FE07C0815058F09491DB
:102810009093F1003196F9CF815020F091919093EF
:10282000F100FACFE20EF31E8091E80085FF0FC0A1
:102830000115110511F481100AC089818FBFC1CF24
:102840005D9884E68093BF038C2D9B2D03C0A092DE
:10285000E800F3CF0F90DF91CF911F910F91FF9080
:10286000EF90DF90CF90BF90AF909F908F907F9030
:102870006F9008951092E9001092BA031092B90374
:102880009093B8038093B7030895CF92DF92FF929D
:102890000F931F93CF93DF9300D0CDB7DEB7F82E01
:1028A0008A016B0101151105B1F0F601F7FE02C0B6
:1028B000849101C0808149835A830E94751201501E
:1028C0001109FFEFCF1ADF0A49815A818111EACF3E
:1028D0008FEF9FEF01C0CA010F900F90DF91CF9152
:1028E0001F910F91FF90DF90CF900895BF92CF92EC
:1028F000DF92EF92FF920F931F93CF93DF936C01C0
:102900008B01EB013BEFB32E2097C1F07E01C13468
:10291000D1051CF020E4E22EF12C8091E80082FF2A
:10292000FCCFC8018C1B9D0B6E2D8C0D9D1D0E9434
:102930006812B092E800CE19DF09E6CFC801DF9136
:10294000CF911F910F91FF90EF90DF90CF90BF90AC
:1029500008951F920F920FB60F921124DF92EF92FB
:10296000FF920F931F932F933F934F935F936F9318
:102970007F938F939F93AF93BF93EF93FF93CF93E7
:10298000DF93CDB7DEB76C97DEBFCDBF1092E90005
:102990008091E80083FF23C168E0CE0145960E9444
:1029A000681282EF8093E8003D8937FF05C080916F
:1029B000E80080FFFCCF03C08EEF8093E800832FF8
:1029C000807609F0F0C02E894F89D88C21110CC077
:1029D000303829F48091BC038093F10002C010923A
:1029E000F1001092F100F4C0842F90E09D29213075
:1029F00049F43111EDC0019709F0EAC08091BC03A0
:102A00008D7F0AC0233059F43111E2C0019709F0DB
:102A1000DFC08091BC0382608093BC03D9C02530A5
:102A200041F48091E80080FFFCCF40684093E300D0
:102A3000CFC0263009F08DC0EB8CFC8C22E0D21286
:102A40002CC080E090E00E943A140E94031399E0A9
:102A50008E010F5F1F4FF801292F11922A95E9F778
:102A60009983DA8291E09E8390EA98879AEF99871A
:102A70002091B9033091BA03275F3F4F3C832B83EA
:102A80008D83C7010E943A1449E050E0B80180E00C
:102A90000E9445140E9403139BC0C7010E943A1470
:102AA0000E946318BE016B5E7F4F0E94051800975D
:102AB00019F00CF08DC090C081E0D8120EC08B8D43
:102AC0009C8D089719F481E08093B6038091B6033A
:102AD00081112FC065EA71E031C0E3E0DE127CC0F5
:102AE0008F89882349F1823029F440E860E183EC42
:102AF00091E01CC0813029F440E86BE087EB91E065
:102B000015C0833009F068C00E9463188E010F5F02
:102B10001F4FB8010E942418F80101900020E9F726
:102B20003197E01BF10B40E06E2FC8010E94A31209
:102B30004DC063E971E002C064ED71E0611571059B
:102B400009F44AC0FB01449150E080E80E9445141A
:102B50003FC0273009F440C0283021F481E0809341
:102B6000F10036C02930A1F53370B1F5E7E1F1E0AD
:102B700081E021E036E39081992361F08093E900C0
:102B80002093EB0091919093EC003093ED008F5FD8
:102B9000873089F78EE78093EA001092EA008F89E8
:102BA0008093BD0315C08B8D9C8D0E943A14898D36
:102BB000811105C0CE0145960E948F1007C00E946A
:102BC0006318BE016B5E7F4F0E944318882321F07B
:102BD0008EEF8093E80003C081E28093EB006C9657
:102BE0000FB6F894DEBF0FBECDBFDF91CF91FF913E
:102BF000EF91BF91AF919F918F917F916F915F9175
:102C00004F913F912F911F910F91FF90EF90DF9087
:102C10000F900FBE0F901F9018958093E900809140
:102C2000F200882319F08AE38093E80008951F9248
:102C30000F920FB60F9211242F933F934F935F93F0
:102C40006F937F938F939F93AF93BF93CF93EF93A4
:102C5000FF93C091E1008091E100837F8093E100C8
:102C60008093E100C3FF0FC01092E90081E08093E0
:102C7000EB001092EC0082E38093ED001092BD0314
:102C800088E08093F000C2FF19C083E00E940D1617
:102C90008091BF03882339F08091BF0381508093D6
:102CA000BF03882389F18091BE03882339F0809186
:102CB000BE0381508093BE03882341F1C4FF10C03E
:102CC0008091E2008E7E81608093E2008091E1003D
:102CD0008F7E8093E1008091BB038E7E806111C066
:102CE000C0FF16C08091E2008E7E80618093E2007A
:102CF0008091E1008E7E8093E1008091BB038E7E07
:102D000081608093BB0304C05D9ACDCF289AD6CF53
:102D1000FF91EF91CF91BF91AF919F918F917F9153
:102D20006F915F914F913F912F910F900FBE0F9038
:102D30001F9018951092BD031092BC031092BB0314
:102D40000E94E0128091E1008E7E8093E1008DE090
:102D50008093E200559A209AEEEFFFE785919491D7
:102D60008B3F9C4D19F481E08093AE030895FC01E4
:102D7000808191810C943719CF93DF93EC01888186
:102D80009981009711F00E943719198218821D82CB
:102D90001C821B821A82DF91CF9108950F931F939B
:102DA000CF93DF93EC018B016F5F7F4F8881998117
:102DB0000E94C619009731F0998388831B830A8388
:102DC00081E001C080E0DF91CF911F910F910895C4
:102DD000CF93DF93EC0188819981892B29F08A8137
:102DE0009B818617970760F4CE010E94CE16882338
:102DF00041F08C819D81892B19F4E881F981108241
:102E000081E0DF91CF910895EF92FF920F931F938E
:102E1000CF93DF93EC017B018A01BA010E94E8168F
:102E2000811104C0CE010E94BC1607C01D830C8313
:102E3000B701888199810E949E1ACE01DF91CF91BE
:102E40001F910F91FF90EF900895FC011182108265
:102E500013821282158214826115710559F0FB01EB
:102E600001900020E9F7AF0141505109461B570B73
:102E70000C9404170895CF93DF93EC01611571054D
:102E800061F0FB0101900020E9F7AF0141505109C9
:102E9000461B570B0E94041702C00E94BC16CE01AD
:102EA000DF91CF9108950F931F93CF93DF93CDB709
:102EB000DEB729970FB6F894DEBF0FBECDBF8C01E9
:102EC000862FF801118210821382128215821482D9
:102ED00050E0BE016F5F7F4F90E00E94A51ABE01D7
:102EE0006F5F7F4FC8010E943B1729960FB6F89479
:102EF000DEBF0FBECDBFDF91CF911F910F9108951F
:102F0000EF92FF920F931F93CF93DF93EC017B011E
:102F10000C811D816115710511F480E016C0411509
:102F2000510591F0040F151FB8010E94E81688237F
:102F3000A1F3288139818C819D81B701820F931F74
:102F40000E949E1A1D830C8381E0DF91CF911F9117
:102F50000F91FF90EF900895FB01448155816081AE
:102F600071810C948017CF93DF93EC01FB014481B6
:102F70005581608171810E948017811103C0CE014B
:102F80000E94BC16CE01DF91CF9108950E94901A45
:102F900008950E94FC0E0E94C81785EB93E00E94E2
:102FA0009A160E948702C0E0D0E00E948701209715
:102FB000E1F30E940000F9CFEF92FF920F931F936D
:102FC000CF93DF937B01FC01C281D38100E010E04D
:102FD000209781F0E881F9810280F381E02DB7012B
:102FE000CE01099597FD08C0080F191F0884D985DF
:102FF000C02DEECFC80102C08FEF9FEFDF91CF91C0
:103000001F910F91FF90EF9008950F931F93CF930F
:10301000DF938B01FC01C281D381209771F0E8819D
:10302000F9810480F581E02DB801CE010995009762
:1030300031F40884D985C02DF0CF80E090E0DF9195
:10304000CF911F910F9108950F931F93CF93DF930B
:103050008B01FC01C281D381209771F0E881F98155
:103060000680F781E02DB801CE010995080F111DEA
:103070000884D985C02DF0CFF8011082DF91CF915F
:103080001F910F9108950F931F93CF93DF938B019F
:10309000FC01C281D381209771F0E881F981019010
:1030A000F081E02DB801CE010995811106C0088498
:1030B000D985C02DF0CF80E001C081E0DF91CF91B4
:1030C0001F910F9108958091C40381110DC082E07A
:1030D0008093C00384E08093C1031092C3031092D5
:1030E000C20381E08093C40380EC93E00895A1E2E1
:1030F0001A2EAA1BBB1BFD010DC0AA1FBB1FEE1F72
:10310000FF1FA217B307E407F50720F0A21BB30BBC
:10311000E40BF50B661F771F881F991F1A9469F738
:1031200060957095809590959B01AC01BD01CF0194
:103130000895EE0FFF1F0590F491E02D0994CF93B1
:10314000DF938230910510F482E090E0E091CE03AD
:10315000F091CF0320E030E0A0E0B0E0309739F10B
:103160004081518148175907B8F04817590771F441
:1031700082819381109729F013969C938E931297D6
:103180002CC09093CF038093CE0327C02115310527
:1031900031F04217530718F0A901DB0101C0EF011C
:1031A0009A01BD01DF010280F381E02DD7CF211507
:1031B0003105F9F0281B390B2430310580F48A8160
:1031C0009B816115710521F0FB019383828304C00B
:1031D0009093CF038093CE03FE01329644C0FE014C
:1031E000E20FF31F81939193225031093983288391
:1031F0003AC02091CC033091CD03232B41F4209190
:103200000201309103013093CD032093CC03209130
:103210000001309101012115310541F42DB73EB770
:103220004091040150910501241B350BE091CC0322
:10323000F091CD03E217F307A0F42E1B3F0B2817E4
:10324000390778F0AC014E5F5F4F2417350748F01F
:103250004E0F5F1F5093CD034093CC038193919306
:1032600002C0E0E0F0E0CF01DF91CF910895CF936D
:10327000DF93009709F487C0FC0132971382128212
:10328000C091CE03D091CF03209781F4208131816A
:10329000280F391F8091CC039091CD03821793079B
:1032A00079F5F093CD03E093CC036DC0DE0120E00F
:1032B00030E0AE17BF0750F412964D915C91139712
:1032C0009D014115510509F1DA01F3CFB383A283C2
:1032D00040815181840F951F8A179B0771F48D914E
:1032E0009C911197840F951F02969183808312966B
:1032F0008D919C911397938382832115310529F435
:10330000F093CF03E093CE033EC0D9011396FC9314
:10331000EE9312974D915D91A40FB51FEA17FB072D
:1033200079F480819181840F951F0296D9011196BD
:103330009C938E938281938113969C938E93129784
:10334000E0E0F0E08A819B81009719F0FE01EC013A
:10335000F9CFCE01029628813981820F931F2091E7
:10336000CC033091CD032817390769F4309729F43D
:103370001092CF031092CE0302C013821282D09318
:10338000CD03C093CC03DF91CF910895A0E0B0E0CE
:10339000ECECF9E10C94DE1AEC01CB01209719F466
:1033A0000E949F18B8C0FE01E60FF71F9E01225031
:1033B0003109E217F30708F4ACC0D9010D911C9153
:1033C000119706171707B8F00530110508F49FC0CC
:1033D000A801445051094617570708F498C00250F5
:1033E0001109061B170B019311936D937C93CF0169
:1033F0000E9437198CC05B01A01AB10A4E01800EE1
:10340000911EA091CE03B091CF03612C712C60E08E
:1034100070E0109709F449C0A815B905C9F5ED90F9
:10342000FC901197670142E0C40ED11CCA14DB0462
:1034300078F147018A189B08640142E0C40ED11C50
:103440001296BC9012971396AC91B5E0CB16D104AE
:1034500040F0B282A38391828082D9018D939C93A4
:1034600009C00E5F1F4F0E0D1F1DF9011183008350
:10347000EB2DFA2F6115710531F0DB011396FC93EA
:10348000EE93129744C0F093CF03E093CE033FC076
:103490006D917C9111976616770608F43B01BD018A
:1034A00012960D90BC91A02DB4CF6091CC03709179
:1034B000CD0368157905E9F468167906D0F44091D2
:1034C0000001509101014115510541F44DB75EB71E
:1034D0006091040170910501461B570BE417F50735
:1034E000C0F4F093CD03E093CC03F9019183808382
:1034F0000EC00E949F187C01009759F0A801BE01E0
:103500000E94951ACE010E943719C70104C0CE014E
:1035100002C080E090E0CDB7DEB7EEE00C94FA1A7E
:1035200081E090E0F8940C94111BFB01DC0102C0D7
:1035300001900D9241505040D8F70895FB01DC01F5
:1035400001900D920020E1F708954532510520F4D5
:10355000423010F00C94B01AFB011082CB01089598
:10356000BB27FB015527AA27880F991FAA1FA4175D
:1035700010F0A41B83955051B9F7A05DAA3308F051
:10358000A95DA193009779F7B111B1931192CB0185
:103590000C94CA1ADC01FC01672F71917723E1F7C3
:1035A000329704C07C916D9370836291AE17BF0710
:1035B000C8F308952F923F924F925F926F927F923D
:1035C0008F929F92AF92BF92CF92DF92EF92FF9233
:1035D0000F931F93CF93DF93CDB7DEB7CA1BDB0BDF
:1035E0000FB6F894DEBF0FBECDBF09942A88398884
:1035F00048885F846E847D848C849B84AA84B9848B
:10360000C884DF80EE80FD800C811B81AA81B98196
:10361000CE0FD11D0FB6F894DEBF0FBECDBFED01AA
:10362000089511E0CCEED1E004C0FE010E949B1889
:0C3630002296CE3ED107C9F7F894FFCFD8
:10363C000000D003800001000000FFFFFFFF00E14D
:10364C0000000000000000C1808100000050617388
:10365C0073206361726420706C6561736500203047
:10366C00004E657720636172642070726573656EBD
:10367C0074210052656164696E67207365726961BB
:10368C006C20646174612E00436172642069643A39
:10369C002000636172643A0056312E30005365721B
:1036AC0069616C20626567696E2C2077656C636F4D
:1036BC006D6521005370692062757320696E6974A1
:1036CC0069616C697A6174696F6E2E006D667263E4
:1036DC0035323220696E697469616C697A6174691A
:1036EC006F6E2E00436573617220417261756A6F53
:1036FC0000436573617220417261756A6F202050BE
:10370C0061726B696E674761746520000000000090
:10371C00B00883085808600873088208000000008D
:10372C00EB0B9A11540CE90BEA0BC61700000000C6
:10373C00EB0B9A11E90DCD0CE10CCB0D0000000048
:10374C0027106E10511061103D104E10000000003B
:10375C003B110D0A006E616E00696E66006F766635
:02376C0000005B
:00000001FF
